:1000000019C020C01FC01FC01DC01CC01BC01AC00B
:1000100019C018C017C016C015C014C013C012C034
:1000200011C010C00FC00EC00DC00CC00BC00AC064
:1000300009C008C011241FBECFEFCDBFDFE3DEBF74
:1000400029D03FC0DDCF8F9380E8809309048F9142
:10005000189520E030E090E048E0BC01022E02C09C
:10006000759567950A94E2F760FF11C04093050407
:1000700053E264EF70E0515060407040E1F700C01F
:1000800000002F5F3F4F2830310539F70895409326
:100090000604EECF88E0809301048DE0809317047E
:1000A000C5E083E3D6DF7894C09350008895F89438
:1000B0001799F7CF80E792E00197F1F700C00000B1
:0600C000F7CFF894FFCF1A
:00000001FF
