:1000000019C028C027C026C025C024C023C022C0D4
:1000100021C020C01FC01EC01DC01CC01BC01AC0F4
:1000200019C018C017C016C015C014C013C012C024
:1000300011C010C011241FBECFEFCDBFDFE3DEBF64
:100040002FE3A0E8BFE301C01D92A138B207E1F79A
:1000500002D039C0D5CF88ED90E084BF9093610085
:1000600084E08093010481E08093000A83E480931C
:10007000010A8FEF90E08093260A9093270A85E08B
:100080008093400A1092410A82EB93E080934C0ADD
:1000900090934D0AE091803F91E081E08E0FF0E077
:1000A000E653FF47208130E020933C0A30933D0A1D
:1000B000803308F080E02091460A2223E1F39093F8
:0A00C000460AE82FEACFF894FFCFBC
:1000CA008090A0B0BFCDDAE5EEF5FBFEFFFEFBF5B2
:1000DA00EEE5DACDBFB0A090806F5F4F4032251AAF
:1000EA00110A04010001040A111A2532404F5F6FF8
:00000001FF
